:100000000C9427010C94060D0C94DF0C0C94B80C86
:100010000C94910C0C944F010C944F010C946A0CAD
:100020000C944F010C944F010C942D0D0C94B30DB6
:100030000C944F010C944F010C944F010C944F0100
:100040000C944F010C944F010C944F010C944F01F0
:100050000C944F010C944F010C944F010C94200C04
:100060000C944F010C943A0F0C94140F0C944F0104
:100070000C944F010C944F010C944F010C944F01C0
:100080000C94860E0C944F010C944F010C944F016C
:100090000C946F110C944F010C944F010C944F0170
:1000A0000C944F010C944F010C944F019B089F0836
:1000B00089088F089508C608C608C608A308A908B5
:1000C000AF08B508BB08C608C1086364696E6F70E5
:1000D000737578585B00080B0002020201000904E6
:1000E00000000102020000052400100105240101A6
:1000F00001042402060524060001070581031000FF
:100100004009040100020A00000007050202400045
:1001100000070583024000000403090412010002E5
:10012000EF020140992C0400000101020301556E09
:100130006B6E6F776E004F726967696E616C2050ED
:1001400072757361206933204D4B33204D756C748B
:1001500069204D6174657269616C20322E302075A2
:1001600070677261646500000000002300260029AA
:10017000002C002F0000000000250028002B002E7E
:100180000031000404040404030405020202020412
:100190000302020202060606060606040402020222
:1001A0000404040802011040804010204080408078
:1001B00008020401804020100201108010204040FD
:1001C000200000000200090F0000030401000C00E1
:1001D00000000000000000000000000000000073AC
:1001E000746172740A006F6B0A00522564006F6BB1
:1001F0000A00452564006F6B0A00432564006F6B9D
:100200000A004625642025640025646F6B0A0025DA
:10021000646F6B0A006F6B0A005325640025646FDE
:100220006B0A0050256400582564006F6B0A005566
:100230002564006F6B0A004D2564006F6B0A004C4B
:100240002564006F6B0A0054256400003A251124D0
:100250001FBECFEFDAE0DEBFCDBF11E0A0E0B1E01E
:10026000ECE5FBE502C005900D92A43AB107D9F781
:1002700023E0A4EAB1E001C01D92A239B207E1F780
:1002800011E0C7E2D1E004C02197FE010E948D2D4C
:10029000C632D107C9F70E94F90E0C94AC2D0C940C
:1002A0000000789484B5826084BD84B5816084BD8B
:1002B00085B5826085BD85B5816085BDEEE6F0E0DF
:1002C000808181608083E1E8F0E01082808182603B
:1002D0008083808181608083E0E8F0E080818160BC
:1002E0008083E1E9F0E080818260808380818160A9
:1002F0008083E0E9F0E0808181608083E1ECF0E0E0
:10030000808184608083808182608083808181603D
:100310008083E3ECF0E0808181608083E0ECF0E0BA
:10032000808182608083E2ECF0E080818160808364
:10033000EAE7F0E08081846080838081826080834E
:1003400080818160808380818068808308953FB749
:10035000F8948091E1019091E201A091E301B091C4
:10036000E40126B5A89B05C02F3F19F00196A11DF9
:10037000B11D3FBFBA2FA92F982F8827820F911D3B
:10038000A11DB11DBC01CD0142E0660F771F881F82
:10039000991F4A95D1F708952FB7F8946091DD0120
:1003A0007091DE018091DF019091E0012FBF0895EF
:1003B00008958093E9008091F200882319F08AE380
:1003C0008093E8000895CF93DF93EC01AB014115D2
:1003D000510529F14134510514F4DA0102C0A0E4B9
:1003E000B0E09091E80092FFFCCF9A2FFB01E41B54
:1003F000F50BEC0FFD1F2FEF290F992331F0909192
:10040000F1009083922F3196F6CF289894E690933E
:10041000D6019BEF9093E8004A1B5B0BD8CFCB0132
:10042000DF91CF9108954091D4015091D501209151
:10043000D2013091D30142175307B4F49091E800F0
:100440009570E1F39091E80092FD19C08093F1005E
:100450008091D4019091D50101968F739927892BB2
:1004600019F48EEF8093E8008091D4019091D5012A
:1004700001969093D5018093D40181E0089580E0A6
:100480000895EF92FF920F931F93CF93DF938C0108
:10049000E62EF42E862F880F8E5F0E94130283E0D3
:1004A0000E941302D0E0DE15A8F4FF202CF4F8011E
:1004B000ED0FF11D849104C0F801ED0FF11D808155
:1004C0000E941302C82F80E00E9413028C2319F0AF
:1004D000DF5FE9CF81E0DF91CF911F910F91FF9016
:1004E000EF900895DF92EF92FF920F931F93CF93B7
:1004F000DF93EB01D42EE52EF82E242F352F890122
:1005000001501109232B99F0FF203CF49E012F5F2D
:100510003F4FFE018491E90102C0888121960E942B
:10052000130298018111EBCF8FEF9FEF02C08D2D49
:100530009E2DDF91CF911F910F91FF90EF90DF9053
:1005400008951092E9001092D5011092D401909371
:10055000D3018093D201089581E08730C0F4282F21
:1005600030E0F901E959FE4F9081992381F08093A1
:10057000E90091E09093EB00F901E959FE4F908179
:100580009093EC0096E39093ED008F5FE6CFEAEE58
:10059000F0E08EE78083108208958093E90081E087
:1005A0008093EB006093EC004093ED000895CF93AF
:1005B000DF931F92CDB7DEB79FB79983F89487700A
:1005C0008093E9009091E800892F807295FF04C024
:1005D0009091F20080E4891B99819FBF0F90DF9179
:1005E000CF910895CF93DF931F92CDB7DEB7FB0174
:1005F000BA019091DB01992321F0552324F451E0B5
:1006000003C051E001C050E051112EC09FB7998343
:10061000F89487708093E9002091F20030E062172F
:1006200073070CF49B01822F9FEF980F882351F0E2
:10063000289884E68093D6018091F1008083892FE9
:100640003196F2CF2115310529F08091F200811108
:1006500001C051E0552319F08BE68093E8008981B1
:100660008FBF822F932F02C08FEF9FEF0F90DF91EC
:10067000CF910895CF93DF931F92CDB7DEB741E0BE
:1006800050E0BE016F5F7F4F0E94F202019719F4A4
:10069000898190E002C08FEF9FEF0F90DF91CF91A3
:1006A0000895CF93DF931F92CDB7DEB79FB799839D
:1006B000F89487708093E9008091F20099819FBF40
:1006C0000F90DF91CF910895813049F028F0833069
:1006D00061F0843081F0089510926E000895EFE685
:1006E000F0E080818D7F80830895E1E7F0E08081F4
:1006F0008D7F80830895E2E7F0E080818F7B8083A7
:100700000895DC01ED91FC910190F081E02D0995B7
:100710000895CF92DF92EF92FF920F931F93CF93A2
:10072000DF938C01DB01C0E0D0E07A0181E0E81AC0
:10073000F108452BA1F0F80180819181FC01208115
:1007400031816D01FFEFCF1ADF0A6C91C801F90109
:100750000995892B21F02196A701D601E6CFCE017C
:10076000DF91CF911F910F91FF90EF90DF90CF908D
:100770000895FC0182E0808384E0818313821282E9
:1007800008958091C501811107C081EC91E00E941C
:10079000B90381E08093C50181EC91E008950F9346
:1007A0001F93CF93DF938B01FC01C281D3812097EC
:1007B00071F0E881F9810190F081E02DB801CE015E
:1007C0000995811105C00884D985C02DF0CF80E03E
:1007D000DF91CF911F910F9108950F931F93CF93A6
:1007E000DF938B01FC01C281D381209771F0E881F6
:1007F000F9810680F781E02DB801CE010995080F37
:10080000111D0884D985C02DF0CFF8011082DF9129
:10081000CF911F910F9108950F931F93CF93DF9363
:100820008B01FC01C281D381209771F0E881F981AD
:100830000480F581E02DB801CE010995009731F4CF
:100840000884D985C02DF0CF80E090E0DF91CF9172
:100850001F910F910895EF92FF920F931F93CF93E3
:10086000DF937B01FC01C281D38100E010E020977F
:1008700081F0E881F9810280F381E02DB701CE019A
:10088000099599234CF0080F191F0884D985C02DAC
:10089000EECF802F912F02C08FEF9FEFDF91CF918E
:1008A0001F910F91FF90EF90089508950F93FC0111
:1008B0008FE591E091838083628343832483058362
:1008C0000F9108950F93019759F46F3F7F4F41F4B3
:1008D00000E020E040E060E08AEB91E00E945604F6
:1008E0000F910895019779F56F3F7F4F61F5E6E528
:1008F000F2E01382128288EE93E0A0E0B0E08483FD
:100900009583A683B7838FE291E0918380838DECFA
:1009100090E0958784878CEC90E09787868788ECB9
:1009200090E0918B808B89EC90E0938B828B8AECAA
:1009300090E0958B848B8EEC90E0978B868B118E5C
:10094000128E138E148E0895FC01238D348D23177F
:1009500038F08FE390E0821B9109830F911D089579
:10096000832F90E0821B910901970895FC01918DDE
:10097000828D981761F0828DDF01A80FB11D5D9601
:100980008C91928D9F5F9F73928F90E008958FEF6F
:100990009FEF0895FC01918D828D981731F0828D23
:1009A000E80FF11D858D90E008958FEF9FEF08957A
:1009B000FC01218D30E0205C3F4F828DA901481B56
:1009C0005109CA018F739927089586E592E00E9424
:1009D000D80421E0892B09F420E0822F0895FC013E
:1009E000848DDF01A80FB11DA35ABF4F8C91248DB8
:1009F00030E02F5F3F4F2F733078332334F4215092
:100A00003109206C3F6F2F5F3F4F248FA689B78934
:100A10008C93A089B1898C9180648C93938D848D03
:100A2000981306C00288F389E02D80818F7D808332
:100A300008950F931F93CF93DF93EC0181E0888F8C
:100A40009B8D8C8D981307C0E889F989808185FD7D
:100A500004C080E003C080E001C081E0882349F049
:100A6000EE89FF896083E889F989808180648083C9
:100A70002CC02B8D30E02F5F3F4F2F733078332306
:100A800034F421503109206C3F6F2F5F3F4F062F08
:100A9000122F9C8D19130CC00FB607FCFACFE889F2
:100AA000F989808185FFF5CFCE010E94EF04F1CF57
:100AB0008B8DFE01E80FF11DE35AFF4F00831B8F62
:100AC000EA89FB8980818062808381E090E0DF9108
:100AD000CF911F910F9108951F93CF93DF93EC0156
:100AE000188D112329F1EA89FB89808185FD07C0D2
:100AF000A889B9898C9186FD04C0812F03C0812FFC
:100B000001C080E08823A1F00FB607FC05C09081EA
:100B100095FD03C080E001C080E0882321F3E889CF
:100B2000F989808185FFDFCFCE010E94EF04DBCF02
:100B3000DF91CF911F91089580E090E0892B19F00B
:100B40000E94E50401C080E081110E940000089528
:100B50000197B9F46F3F7F4FA1F4E8EFF1E0138202
:100B6000128288EE93E0A0E0B0E084839583A683B0
:100B7000B7838DE191E0918380838FEF9FEF95871D
:100B800084870895CF93DF931F92CDB7DEB7698333
:100B9000DC01ED91FC910280F381E02D41E050E019
:100BA000BE016F5F7F4F09950F90DF91CF91089540
:100BB00083E00E94D901089583E00E94D70290E06B
:100BC0000895FC018485958599232CF02FEF3FEF44
:100BD00035872487089582E00E943A030895CF93D1
:100BE000DF93EC018C859D8599232CF482E00E9493
:100BF0003A039D878C878C859D85DF91CF910895E1
:100C0000FC0184859585992334F082E00E9451038C
:100C100090E00196089582E00E94510390E00895CB
:100C20001F93CF93DF93EC0119818881813A59F4A6
:100C3000113249F447E050E064E071E080E00E9446
:100C4000720281E080C0813209F07AC0133281F4EF
:100C50008B8190E0982F88272A81822BA0E0B0E03A
:100C60008093000190930101A0930201B0930301CE
:100C7000103231F467E070E084E091E00E94E3011B
:100C8000123219F48A8180930B01103219F012325A
:100C900009F058C08091D801811103C0E0E0F8E06C
:100CA00002C0EEEFFAE08091040190910501A0915D
:100CB0000601B0910701803B9440A105B10531F4D4
:100CC00080910B0180FF04C080E003C080E001C080
:100CD00081E08823C9F0EE3F9AE0F90731F02081E6
:100CE00031813093FF0A2093FE0A27E737E73183EB
:100CF00020832BE098E10FB6F894A89590936000BC
:100D00000FBE209360001FC00FB6F894A895809185
:100D10006000886180936000109260000FBEA8950B
:100D2000EE3F2AE0F20741F08091FE0A9091FF0A1F
:100D30009183808381E007C01182108281E003C02B
:100D400080E001C081E0DF91CF911F910895CF93A2
:100D5000DF93EC018C81811104C0CE010E9410064A
:100D600005C00E94C103BE010E94CF03DF91CF9155
:100D70000895FC0190819E5F908342E450E066ED0F
:100D800070E080E80E9472020895CF93DF931F9273
:100D9000CDB7DEB71982CE0101960E94B9060E9436
:100DA000C103BE016F5F7F4F0E942B0489810F90AA
:100DB000DF91CF910895EF92FF920F931F93CF93FE
:100DC000DF93CDB7DEB729970FB6F894DEBF0FBE1D
:100DD000CDBF7C0180E090E00E94A1020E94C50688
:100DE00099E08E010F5F1F4FF801292F11922A956C
:100DF000E9F7998392E09A8391E09E8390EA98873D
:100E00009AEF99872091D4013091D501275F3F4F08
:100E10003C832B838D83C7010E94A10249E050E0EF
:100E2000B80180E00E9472020E94C50681E0299606
:100E30000FB6F894DEBF0FBECDBFDF91CF911F91EB
:100E40000F91FF90EF900895089580E090E008954D
:100E5000FF920F931F93CF93DF93CDB7DEB76497C5
:100E60000FB6F894DEBF0FBECDBF8C01FC01F3803E
:100E7000F2E0FF1206C0FC01868197810E94DB062A
:100E80005DC0FC01868197810E94A1020E94C1037E
:100E9000B8010E940C049C01892B39F081E01216E4
:100EA00013060CF44BC080E049C0F1E0FF1681F15D
:100EB00083E0F81230C0F8018281882379F1823012
:100EC00039F440E860E386E391E00E94410236C0D5
:100ED000813039F440E867E08EE291E00E944102FF
:100EE0002DC0833041F50E94C1038E010F5F1F4F5B
:100EF000B8010E94ED03F80101900020E9F7319755
:100F0000BF01601B710B40E0C8010E94410216C086
:100F10006CE171E005C060E070E002C068E171E082
:100F20006115710551F0FB01449150E080E80E9489
:100F3000720281E003C080E001C080E064960FB6D9
:100F4000F894DEBF0FBECDBFDF91CF911F910F91FF
:100F5000FF9008956115710581F0FB01019000205B
:100F6000E9F73197AF01461B570BDC01ED91FC917E
:100F70000280F381E02D0995089580E090E00895C6
:100F800060E871E00E94AA0708950E94AA070895E8
:100F90008F929F92AF92BF92DF92EF92FF920F9348
:100FA0001F93CF93DF93CDB7DEB7A1970FB6F89419
:100FB000DEBF0FBECDBF7C01CB01BA01D22E19A27C
:100FC00021E02D1520F00F2EFAE0DF2EF02D8E01FE
:100FD0000F5D1F4F8D2C912CA12CB12CA5019401DC
:100FE0000E94442CE62F622F732F842F952F0150DF
:100FF0001109EA3010F4E05D01C0E95CD801EC931E
:10100000611571058105910529F70115110591F00B
:10101000F80101900020E9F73197AF01401B510B17
:10102000D701ED91FC910280F381E02DB801C70159
:10103000099502C080E090E0A1960FB6F894DEBF5B
:101040000FBECDBFDF91CF911F910F91FF90EF9019
:10105000DF90BF90AF909F908F900895211531053C
:1010600049F4DC01ED91FC910190F081E02D642FB9
:10107000099508950E94C80708959A01462F50E0E7
:1010800060E070E00E942E080895CF92DF92EF9208
:10109000FF920F931F93CF93DF936C017B0100E0CE
:1010A00010E0C0E0D0E003301105A4F4F601E00F39
:1010B000F11F62814AE050E0C7010E943D08C80F5D
:1010C000D91F6EE2C7010E948103C80FD91F0F5FAD
:1010D0001F4FE9CFF60165814AE050E0C7010E9449
:1010E0003D088C0F9D1FDF91CF911F910F91FF90B5
:1010F000EF90DF90CF9008950E94A72D90E0FC0123
:101100003197EF30F10508F041C0EA5AFF4F0C94D7
:101110008D2D809180008F7780938000089580913D
:1011200080008F7D80938000089580918000877F6C
:1011300080938000089584B58F7784BD089584B529
:101140008F7D84BD0895809190008F77809390006B
:101150000895809190008F7D8093900008958091F4
:101160009000877F8093900008958091C0008F77D2
:101170008093C00008958091C0008F7D8093C0004F
:1011800008958091C200877F8093C2000895CF9315
:10119000DF93282F30E0F901EF53FE4F8491F901DE
:1011A000EE55FE4FD491F901ED57FE4FC491CC237B
:1011B00091F081110E947E08EC2FF0E0EE0FFF1FEE
:1011C000E959FE4FA591B491EC91ED2381E090E0B7
:1011D00021F480E002C080E090E0DF91CF9108959B
:1011E0008230910538F0880F991F880F991F059755
:1011F0000197F1F708958F929F92AF92BF92CF928D
:10120000DF92EF92FF926B017C010E94A7014B01DC
:101210005C01C114D104E104F104F1F00E94A701C2
:10122000DC01CB0188199909AA09BB09883E9340C2
:10123000A105B10570F321E0C21AD108E108F10857
:1012400088EE880E83E0981EA11CB11CC114D10445
:10125000E104F10419F7DDCFFF90EF90DF90CF901C
:10126000BF90AF909F908F9008958AEA92E00E947D
:1012700031156CE271E080E090E00E94FB0880E0B4
:1012800090E00E9431156CE271E080E090E00E94F5
:10129000FB08089580915D03882361F083E10E943B
:1012A000C708019719F40E943509089510925E034A
:1012B00010925D030895CF92DF92EF92FF920F9309
:1012C0001F93CF93DF9300D01F92CDB7DEB700916D
:1012D0005E030111A2C0CE0101960E941A220E9453
:1012E000A5184EE161E080E00E9493130E94CC01BA
:1012F0006B017C0110E00E940521813019F08430DF
:1013000061F155C0112389F00E94CC01DC01CB01B1
:101310008C199D09AE09BF09893E9340A105B1050D
:1013200030F0111106C0802F05C081E003C0802F6E
:1013300001C081E0882309F440C0CE0101960E94DB
:10134000B3218823E1F146EF5FEF60E070E080E0D9
:1013500090E00E945A2211E037C0112389F00E94C8
:10136000CC01DC01CB018C199D09AE09BF09893E76
:101370009340A105B10530F0111106C0802F05C0C2
:1013800081E003C0802F01C081E08823D1F0CE012D
:1013900001960E94C9218823B1F04AE050E060E044
:1013A00070E080E090E00E945A2211E00DC00E949F
:1013B000CC016B017C0110E007C011E005C011E019
:1013C00003C011E001C011E080E091E00E943115FE
:1013D0006AE070E080E090E00E94FB0880E092E02C
:1013E0000E9431156AE070E080E090E00E94FB0806
:1013F00088E090E00E94311562E370E080E090E0C8
:101400000E94FB080E940521823009F074CF0E94DF
:10141000DA16CE0101960E949A210F900F900F903C
:10142000DF91CF911F910F91FF90EF90DF90CF90C0
:1014300008950E943F1E0E9405218230D1F78091BD
:101440008A0390918B0324E030E0281B390B220F94
:10145000331F82E090E002C0880F991F2A95E2F7BF
:101460000E94311564EF71E080E090E00E94FB087B
:101470000E9405218230E9F680918903811102C022
:101480000E94B42480918A0390918B0305971CF4E9
:101490000E945B09CECF80E090E00E94FE1A089582
:1014A0000F931F93CF93DF9380E090E00E9431155C
:1014B00068EC70E080E090E00E94FB088AEA92E02D
:1014C0000E94311560EB74E080E090E00E94FB0820
:1014D00080E090E00E94311568E572E080E090E0E5
:1014E0000E94FB0801E010E0C0E0D0E080E091E065
:1014F0000E94311561E070E080E090E00E94FB08FE
:1015000080E092E00E94311561E070E080E090E0C0
:101510000E94FB0882E090E09E01220F331F02C070
:10152000880F991F2A95E2F70E94311561E070E05B
:1015300080E090E00E94FB080E940521823079F053
:10154000843041F1813091F51C161D067CF5219700
:1015500060E273E080E090E00E94FB0827C0C230A8
:10156000D10581F024F4C130D10541F01FC0C33052
:10157000D105D9F0C430D10559F018C00E94190A1C
:1015800011E014C0011112C00E94272211E00EC008
:1015900011E00CC0C430D1054CF4219660E273E038
:1015A00080E090E00E94FB0801C000E0112309F4F4
:1015B0009DCF80E090E00E94311560E971E080E00D
:1015C00090E00E94FB088AEA92E00E94311560E9EF
:1015D00071E080E090E00E94FB0880E090E00E94D3
:1015E000311560E971E080E090E00E94FB0880E046
:1015F00090E00E94311580918A0390918B0324E042
:1016000030E0281B390B220F331F81E090E002C02D
:10161000880F991F2A95E2F70E943115DF91CF912B
:101620001F910F9108951092DB011092DA01109230
:10163000D901E7EDF0E080818160808380EA8093CA
:10164000D80089B5806189BD89B5826089BD09B43A
:1016500000FEFDCF61E070E080E090E00E94FB08BA
:10166000E8EDF0E080818F7C80618083E0EEF0E047
:101670008081807F8083E1EEF0E080818E7E8083B8
:101680008DE08093E200559A209AEEEFFFE7859176
:1016900094918B3F9C4D19F481E08093D80108957B
:1016A0009F92AF92BF92CF92DF92EF92FF920F93F1
:1016B0001F93CF93DF931F92CDB7DEB7D82E8B0148
:1016C000942EA52E8091DB01882309F489C0809196
:1016D000D90180FF05C0E0EEF0E080818260808368
:1016E000E92CFA2CB12C0F2EFAEFCF2EF02DE114AD
:1016F000F10419F4BB2009F46CC08D2D0E94D702AF
:1017000081110BC0CA94CC2009F46DC061E070E077
:1017100080E090E00E94FB08EACF282F30E0E2163C
:10172000F3060CF48E2D2FB72983F8942D2D2770F6
:101730002093E9002091E80025FF48C0E81AF1084D
:10174000D5FE08C02FEF280F882301F11092F10079
:10175000822FF8CFDD2074F49FEF980F8823B1F02B
:1017600098012F5F3F4FF80104910093F100892FFA
:101770008901F2CF2FEF280F882341F0F801308143
:101780003093F100822F0F5F1F4FF4CFBB2029F061
:101790008AE38093E800B12C16C08091E80085FDB3
:1017A00007C08AE38093E800E114F10451F00BC014
:1017B000E114F10441F4D6FE06C08AE38093E80008
:1017C00002C0BB24B39489818FBF91CF89818FBF21
:1017D0008ECF5D9884E68093D701892D9A2D05C020
:1017E0008FEF9FEF02C08FEF9FEF0F90DF91CF91B0
:1017F0001F910F91FF90EF90DF90CF90BF90AF902F
:101800009F900895CF93DF9320910B01222371F0D5
:10181000EC0183E00E94500B1816190674F081E069
:1018200090E09B838A8380E090E007C021E030E075
:10183000FC013383228380E090E0DF91CF91089513
:101840001F920F920FB60F9211242F933F938F93F5
:101850009F93AF93BF938091DD019091DE01A091A2
:10186000DF01B091E0013091DC0123E0230F2D373F
:1018700020F40196A11DB11D05C026E8230F029694
:10188000A11DB11D2093DC018093DD019093DE0149
:10189000A093DF01B093E0018091E1019091E2011A
:1018A000A091E301B091E4010196A11DB11D8093C7
:1018B000E1019093E201A093E301B093E401BF91B1
:1018C000AF919F918F913F912F910F900FBE0F90ED
:1018D0001F9018951F920F920FB60F9211242F93FD
:1018E0003F934F935F936F937F938F939F93AF93A8
:1018F000BF93EF93FF93E0911401F09115010995C7
:10190000FF91EF91BF91AF919F918F917F916F91D7
:101910005F914F913F912F910F900FBE0F901F90AD
:1019200018951F920F920FB60F9211242F933F9389
:101930004F935F936F937F938F939F93AF93BF93D7
:10194000EF93FF93E0911201F09113010995FF913C
:10195000EF91BF91AF919F918F917F916F915F9127
:101960004F913F912F910F900FBE0F901F901895A0
:101970001F920F920FB60F9211242F933F934F9304
:101980005F936F937F938F939F93AF93BF93EF93E7
:10199000FF93E0911001F09111010995FF91EF91F2
:1019A000BF91AF919F918F917F916F915F914F9177
:1019B0003F912F910F900FBE0F901F9018951F927F
:1019C0000F920FB60F9211242F933F934F935F9373
:1019D0006F937F938F939F93AF93BF93EF93FF93F7
:1019E000E0910E01F0910F010995FF91EF91BF91E8
:1019F000AF919F918F917F916F915F914F913F91A7
:101A00002F910F900FBE0F901F9018951F920F925D
:101A10000FB60F9211242F933F934F935F936F93C1
:101A20007F938F939F93AF93BF93EF93FF93E09137
:101A30000C01F0910D010995FF91EF91BF91AF91CC
:101A40009F918F917F916F915F914F913F912F91D6
:101A50000F900FBE0F901F9018951F920F920FB608
:101A60000F9211242F933F934F935F936F937F9324
:101A70008F939F93AF93BF93CF93EF93FF93E1EE39
:101A8000F0E0C0818081837F8083C3FF0AC042E38E
:101A900060E080E00E94CD021092DB0188E080933C
:101AA000F000C2FF27C083E00E94D9018091D701D6
:101AB000882349F08091D70181508093D70181110B
:101AC00004C081E003C080E001C080E081115D9A24
:101AD0008091D601882349F08091D601815080936E
:101AE000D601811104C081E003C080E001C080E024
:101AF0008111289AC4FF12C0E2EEF0E080818E7E50
:101B000081608083E1EEF0E080818F7E8083809130
:101B1000D9018E7E80618093D90113C0C0FF11C0AE
:101B2000E2EEF0E080818E7E80618083E1EEF0E085
:101B300080818E7E80838091D9018E7E81608093AA
:101B4000D901FF91EF91CF91BF91AF919F918F916B
:101B50007F916F915F914F913F912F910F900FBEA9
:101B60000F901F9018951F920F920FB60F9211248D
:101B70002F933F934F935F936F937F938F939F9395
:101B8000AF93BF93EF93FF93CF93DF93CDB7DEB7C0
:101B90002897DEBFCDBF1092E9008091E80083FF57
:101BA0009CC088E0FE0131969FEF980F882331F0AA
:101BB0008091F1008083892F3196F6CF289884E6B2
:101BC0008093D60182EF8093E800998199232CF4C9
:101BD0008091E80080FFFCCF03C08EEF8093E80087
:101BE000892F807609F05AC08A814B815C81242F2D
:101BF00030E0352B811110C0903841F48091DA012A
:101C0000E1EFF0E08083108281E05EC0E1EFF0E080
:101C10001082108281E058C0813069F4911147C070
:101C20002130310509F045C08091DA018D7F809324
:101C3000DA0181E049C0833061F491113CC0213068
:101C40003105D9F58091DA0182608093DA0181E073
:101C50003BC0853049F48091E80080FFFCCF4068AC
:101C60004093E30081E030C0863029F4CE01019634
:101C70000E94280729C0873011F1883021F481E0C3
:101C80008093F10021C08930E1F49370E1F40E9467
:101C9000AC028B818093DB0181E016C08F81988537
:101CA0000E94A102CE0101960E94A7060DC081E00C
:101CB0000BC081E009C081E007C081E005C080E081
:101CC00003C081E001C080E0882321F08EEF809383
:101CD000E80003C081E28093EB0028960FB6F894E9
:101CE000DEBF0FBECDBFDF91CF91FF91EF91BF91CE
:101CF000AF919F918F917F916F915F914F913F91A4
:101D00002F910F900FBE0F901F9018951F920F925A
:101D10000FB60F9211242F933F934F935F936F93BE
:101D20007F938F939F93AF93BF93EF93FF93809194
:101D3000CE019091CF01A091D001B091D101892B1A
:101D40008A2B8B2B41F19091CD01E0E0F0E0808176
:101D5000892780838091CE019091CF01A091D001FD
:101D6000B091D101181619061A061B06FCF48091D1
:101D7000CE019091CF01A091D001B091D1010197F6
:101D8000A109B1098093CE019093CF01A093D00116
:101D9000B093D1010BC083E00E9464038091CD0118
:101DA000E0E0F0E09081809589238083FF91EF91BE
:101DB000BF91AF919F918F917F916F915F914F9163
:101DC0003F912F910F900FBE0F901F9018950F937A
:101DD0001F93CF93DF93EC010E94C5078C01CE01C6
:101DE0000E94C007800F911FDF91CF911F910F912B
:101DF00008950E94510180EC91E00E94130B0E9413
:101E0000DA1E0E94991E0E949C05FBCF6FEF7FEFA8
:101E100081E090E00E94620408956FEF7FEF81E01F
:101E200090E00E94720408951F920F920FB60F92D5
:101E300011242F933F934F935F936F937F938F93CF
:101E40009F93AF93BF93EF93FF9386E592E00E9439
:101E5000EF04FF91EF91BF91AF919F918F917F918F
:101E60006F915F914F913F912F910F900FBE0F9007
:101E70001F9018951F920F920FB60F9211242F9357
:101E80008F939F93AF93BF93EF93FF93E09166027D
:101E9000F0916702808182FD14C0E6E5F2E0A68938
:101EA000B7892C91818D8F5F8F73928D891771F017
:101EB000DF01E18DF0E0EA5AFD4F258F59968C93B2
:101EC00005C0E0916C02F0916D028081FF91EF916D
:101ED000BF91AF919F918F912F910F900FBE0F9057
:101EE0001F901895CF92DF92EF92FF921F93CF939E
:101EF000DF93EC016A017B01122F60E079E08DE352
:101F000090E0A70196010E94442CDA01C9010197D3
:101F1000A109B109B695A795979587959C01E88980
:101F2000F98982E08083C11481EED806E104F104CE
:101F300021F0211580E13807A8F0E889F98910829D
:101F400060E874E88EE190E0A70196010E94442CBD
:101F5000DA01C9010197A109B109B695A79597952D
:101F600087959C01EC85FD853083EE85FF85208378
:101F7000188EEC89FD891083EA89FB898081806154
:101F80008083EA89FB89808188608083EA89FB8974
:101F9000808180688083EA89FB8980818F7D80834E
:101FA000DF91CF911F91FF90EF90DF90CF90089538
:101FB0006FEF7FEF81E090E00E94A80508952FEF7A
:101FC0003FEFFC013587248708951092B9011092E4
:101FD000B801EAE7F0E0808187608083ACE7B0E099
:101FE0008C9180648C9380818068808380E2809370
:101FF0007E0010927D000895E0915602F091570204
:102000000190F081E02D682F86E592E0099580E04F
:1020100090E0089585ED8093BC008091BC0084FD24
:10202000FCCF1092370308950F93413208F04CC053
:10203000909137039111FCCF32E030933703009336
:1020400039033FEF3093360310925B0340935A03FA
:10205000562FAAE3B3E0FB013E2F351B341718F4CB
:1020600031913D93F9CF10925C0330915C03880F5E
:10207000832B80935C0380913803813071F410923C
:10208000380380915C038093BB008091BC0083FD8A
:10209000F8CF85EC8093BC0003C085EE8093BC0034
:1020A000222321F0809137038230D1F380913603CF
:1020B0008F3F79F080913603803241F08091360372
:1020C000803331F094E005C091E003C092E001C09C
:1020D00093E0892F0F910895CF92DF92EF92FF92B4
:1020E0009CE59CBD1DBC813039F020F0823029F484
:1020F0002F9803C0469801C05F986EBD0DB407FECF
:10210000FDCF9EB5C52EDD24EE24FF24CEBC0DB43C
:1021100007FEFDCF9EB56A01EE24FF24CEBC0DB4B0
:1021200007FEFDCF9EB5C32ED42EE52EFF24CEBCD8
:102130000DB407FEFDCF9EB52EBD0DB407FEFDCF3D
:102140009EB5813039F020F0823029F42F9A03C0F7
:10215000469A01C05F9AFF90EF90DF90CF9008956C
:102160009C0188E0369527952115310511F08150A5
:10217000C9F708951F93CF93DF93182FD42FC22F41
:10218000262F2F70822F90E0A0E0B0E0B82FAA2772
:10219000992788279C01AD01C03280F4236D4360EC
:1021A00050616CEE812F0E946C10DF718D2F90E0DA
:1021B000A0E0B0E0AC01BD016F6012C0236D4160D2
:1021C00050616CEE812F0E946C10D695DF718D2FBF
:1021D00090E0A0E0B0E0AC01BD016F60C695CF71AA
:1021E0008C2F90E0D82FCC27CE01DD0FAA0BBB0B94
:1021F0009A01AB01282B392B4A2B5B2B60E9812FED
:102200000E946C1080E0DF91CF911F910895CF93D1
:10221000DF93282F30E0F901EF53FE4F8491F9014D
:10222000EE55FE4FD491F901ED57FE4FC491CC23EA
:1022300089F081110E947E08EC2FF0E0EE0FFF1F65
:10224000EB58FE4FA591B4918FB7F894EC91ED2B1C
:10225000EC938FBFDF91CF91089586E592E00E94C5
:10226000B6040895682F88EF91E00E94C20580E0CF
:1022700090E0089588EF91E00E94E10508952EE036
:1022800040E052EC61E070E086E592E00E94720F5F
:10229000E8E4F2E08CEF9FE0918780878DE291E1A6
:1022A0009387828783E083831586148608952EE0C2
:1022B00040E052EC61E070E088EF91E00E94DF0FB7
:1022C000EAEEF1E082E391E1918780878AE391E190
:1022D0009387828783E083831586148608951F92EF
:1022E0000F920FB60F9211242F933F934F935F934A
:1022F0006F937F938F939F93AF93BF93EF93FF93CE
:102300008091B900887F803609F4B1C090F5883299
:1023100009F465C090F4803109F459C038F4882379
:1023200009F410C1883009F452C010C1883109F491
:1023300056C0803209F469C009C1803409F476C0FE
:1023400070F4803309F461C0883309F0FFC08093D2
:10235000360385EC8093BC0010923703F7C08035BC
:1023600009F458C0883509F469C0883409F0EEC012
:10237000EBC0883909F4DCC0A8F4883709F477C0C9
:1023800038F4883609F473C0803709F470C0DEC0B1
:10239000883809F4CDC0803909F472C0803809F05A
:1023A000D5C06EC0803B09F49AC038F4803A09F475
:1023B0007CC0883A09F493C0C9C0803C09F4BCC011
:1023C000883C09F4B9C0883B09F49CC0BFC0809127
:1023D0005C038093BB0085EC8093BC00B7C09091F8
:1023E0005B0380915A039817A8F5E0915B0381E0A5
:1023F0008E0F80935B03F0E0E65CFC4F808180935E
:10240000BB0085EC8093BC00A1C0809336030E9482
:102410000A109CC0E0915B0381E08E0F80935B0308
:102420008091BB00F0E0E65CFC4F808390915B0301
:1024300080915A03981708F07BC076C0E0915B0347
:1024400081E08E0F80935B038091BB00F0E0E65C3F
:10245000FC4F808380913903811176C081E08093A5
:10246000380384EA8093BC00109237036FC083E086
:10247000809337031092350385EC8093BC0066C0CF
:1024800080913503803208F053C0E091350381E03C
:102490008E0F809335038091BB00F0E0EB5EFC4F24
:1024A000808385EC8093BC0051C085EC8093BC0098
:1024B0001092370380913503803230F4E091350378
:1024C000F0E0EB5EFC4F10826091350370E085E137
:1024D00093E0E0E0F0E009951092350337C084E026
:1024E000809337031092140310921303E0E0F0E09E
:1024F000099580911303811105C081E08093130336
:102500001092F302E091140381E08E0F8093140384
:10251000F0E0ED50FD4F80818093BB00909114035B
:1025200080911303981720F485EC8093BC000EC0B3
:1025300085E88093BC000AC085EC8093BC001092B3
:10254000370304C0109236030E940A10FF91EF91E6
:10255000BF91AF919F918F917F916F915F914F91BB
:102560003F912F910F900FBE0F901F901895413201
:1025700008F045C0909137039111FCCF91E0909302
:102580003703209339032FEF2093360310925B0318
:10259000240F20935A0390935C0390915C03880F5F
:1025A000892B80935C0380913803813071F4109201
:1025B000380380915C038093BB008091BC0083FD55
:1025C000F8CF85EC8093BC0003C085EE8093BC00FF
:1025D000809137038130E1F380915B03841710F41D
:1025E00040915B03AAE3B3E0962FFB018E2F891B7A
:1025F000841718F48D918193F9CF842F089580E08A
:1026000008951092370381E08093390310923803C4
:1026100082E00E94071183E00E940711E9EBF0E0DD
:1026200080818E7F808380818D7F80838CE080930A
:10263000B80085E48093BC000895282F8CE58CBDFC
:102640001DBC213039F020F0223029F42F9803C02E
:10265000469801C05F988FE68EBD0DB407FEFDCF92
:102660008EB51EBC0DB407FEFDCF8EB51EBC0DB4DD
:1026700007FEFDCF8EB51EBC0DB407FEFDCF8EB597
:102680001EBC0DB407FEFDCF8EB5213039F020F011
:10269000223029F42F9A03C0469A01C05F9A8CE534
:1026A0008CBD1DBC213039F020F0223029F42F9848
:1026B00003C0469801C05F981EBC0DB407FEFDCF55
:1026C0008EB51EBC0DB407FEFDCF8EB590E0A0E028
:1026D000B0E0BA2FA92F982F88271EBC0DB407FE93
:1026E000FDCF3EB5832BBA2FA92F982F88271EBC6C
:1026F0000DB407FEFDCF3EB5832BBA2FA92F982F1F
:1027000088271EBC0DB407FEFDCF3EB5832B2130BC
:1027100039F020F0223029F42F9A03C0469A01C0E4
:102720005F9A937008951F93CF93DF93C82FD62F8E
:10273000142F813041F038F0823051F480E190E084
:102740000E94B01006C082E090E00E94B01001C06C
:1027500080E1212F4D2F682F8C2F0E94BA10D82F87
:1027600081112DC020E030E0A90161E98C2F0E9489
:102770006C10C33030F4EC2FF0E0E358FE4F2081B2
:1027800001C024E0822F220F990BAA0BBB0BAC01D6
:10279000332722276DEE8C2F0E946C1022EC31E043
:1027A00040E050E064E98C2F0E946C1020E831E397
:1027B00040E050E060E88C2F0E946C1001C0DFEF19
:1027C0008D2FDF91CF911F9108951F93CF93DF93AA
:1027D000C82F162FD42F813041F038F0823051F4B9
:1027E00080E190E00E94B01006C082E090E00E947C
:1027F000B01001C080E12D2F412F682F8C2F0E9437
:10280000BA10182F811135C020E030E0A90161E92C
:102810008C2F0E946C1020E030E044E050E06DEE20
:102820008C2F0E946C1020E030E0A90164E98C2F0D
:102830000E946C1024E030E040E050E060E88C2F13
:102840000E946C102D2F220F220F822F90E0A0E00B
:10285000B0E09C01AD013260466060EF8C2F0E94B9
:102860006C1020E030E0A90163E98C2F0E946C100D
:1028700001C01FEF812FDF91CF911F91089540E09C
:10288000623019F460E00C94E51360E00C9493134B
:10289000CF93DF93CDB7DEB72F970FB6F894DEBF97
:1028A0000FBECDBF20916E0130916F01409170013C
:1028B00029833A834B8320917101309172014091B9
:1028C00073012C833D834E832091740130917501F7
:1028D000409176012F833887498720917701309185
:1028E0007801409179012A873B874C8720917A01B2
:1028F00030917B0140917C012D873E874F8761306D
:10290000E1F098F0623061F5282F30E0FE01E20F2F
:10291000F31F448162852F960FB6F894DEBF0FBE79
:10292000CDBFDF91CF910C94E513282F30E0FE014D
:10293000E20FF31FDF01458507C0282F30E0FE01BD
:10294000E20FF31FDF01418117966C912F960FB6AE
:10295000F894DEBF0FBECDBFDF91CF910C949313DF
:1029600080E02F960FB6F894DEBF0FBECDBFDF918B
:10297000CF9108951F93CF93DF93182F3E9A579AC4
:10298000279A469A5F9A2F9A549A249A569A5C9854
:102990002C985E98682F80E00E94481421E030E077
:1029A000811102C020E030E0CC27DD27C21BD30B11
:1029B000612F81E00E944814811102C020E001C013
:1029C0002EEFC20F612F82E00E94481481118CEF1C
:1029D0008C0FDF91CF911F9108954091E8015091A4
:1029E000E9019A012470332736952795CA01807131
:1029F000992796958795969587954170242B822BDC
:102A00000895982F9270990F282F2470220F220F6B
:102A10008170892B922F982B2091E8013091E90148
:102A20002A7EA901492BCA010E94C120089597E07E
:102A30008927282F217030E0220F331F982F9270A2
:102A4000990F990F8470880F880F880F292B282BD6
:102A50008091E8019091E901857D822B0E94C1203F
:102A600008950F932091E7012223E1F0809590953E
:102A70002091E5013091E6018217930799F0909338
:102A8000E6018093E50101E021E041E065EE71E0BF
:102A900080E20E94141020E041E066EE71E081E2E5
:102AA0000E9414100F910895CF93DF930E94432248
:102AB000C2E3D0E01C161D06C4F40E94D82488EBA3
:102AC0009BE00E94F008CE0162E370E00E94792D45
:102AD000660F771F81E090E002C0880F991F6A950A
:102AE000E2F70E9431152197E5CF0E943D22C2E313
:102AF000D0E01C161D06E4F40E94D82488EB9BE06D
:102B00000E94F008CE0162E370E00E94792D24E07B
:102B100030E0261B370B220F331F81E090E002C00C
:102B2000880F991F2A95E2F70E9431152197E1CF6E
:102B3000DF91CF910895CF93DF938091880388230D
:102B400019F081E00E9404240E9443226091180140
:102B500080E00E944814C0E0D0E0C13481E0D80792
:102B6000D4F4C639D10579F480911801813031F45B
:102B700047E161E080E00E94931305C04BE161E012
:102B800080E00E94E5130E94D82488E29AE00E9427
:102B9000F0082196E2CF80911801813041F447E09E
:102BA00061E080E00E949313C0E0D0E006C048E0FE
:102BB00061E080E00E94E513F7CFC33C81E0D807D5
:102BC00044F40E94D82488E998E00E94F0082196F5
:102BD000F4CF80E00E9404246091180180E00E94FC
:102BE0003F14DF91CF910895CF93DF93880F991F02
:102BF000C1E0D0E002C0CC0FDD1F8A95E2F7CE0124
:102C00000E94311568E270E080E090E00E94FB08CD
:102C100080E090E00E94311564E170E080E090E097
:102C20000E94FB08CE010E94311568E270E080E04E
:102C300090E00E94FB0880E090E00E9431156AE07D
:102C400070E080E090E00E94FB08DF91CF91089552
:102C5000EF92FF920F931F93CF93DF9381E00E9437
:102C600004240E94432280911801813031F44FE006
:102C700061E080E00E94931305C04FE061E080E0D6
:102C80000E94E513E12CF12CC0E0D0E000E011E05F
:102C90000E94D8242196C333D1059CF080918A03E9
:102CA00090918B0324E030E0281B390B220F331F57
:102CB00082E090E002C0880F991F2A95E2F70E94F7
:102CC0003115C536D1054CF080E090E00E943115F9
:102CD0008FEFE81AF80AC0E0D0E083E10E94C7084D
:102CE000019711F401E010E00E940521882331F0E2
:102CF0008BE0E816F10424F480E003C080E001C01A
:102D000081E0882311F000E010E080EA9FE00E945B
:102D1000F0081111BDCF002379F00E943D22C8E5D3
:102D2000D2E01C161D0644F40E94D82488EB9BE0D8
:102D30000E94F0082197F5CF6091180180E00E9471
:102D40003F1480E00E94042480918A0390918B03B9
:102D500024E030E0281B390B220F331F81E090E084
:102D600002C0880F991F2A95E2F70E94311581E071
:102D7000DF91CF911F910F91FF90EF900895609197
:102D8000180180E00E9448146091860370918703C7
:102D90007195619571098091840390918503919556
:102DA000819591090E944B236091180180E00E9457
:102DB0003F1408958F929F92AF92BF92CF92DF926D
:102DC000EF92FF920F931F93CF93DF9360911801BF
:102DD00080E00E94481480918803882319F081E0E4
:102DE0000E9404240E943D22C0E1D7E200E010E0EE
:102DF0000F2E812C912CFAEFAF2EF4E4BF2EF02D84
:102E00000E94D8242197C83725E0D207A4F420E0F7
:102E100030E84BEB55E4C501B4010E941D2B88231B
:102E200054F420E030E040E450E4C501B4010E94D5
:102E3000672C4B015C01BE010D2E000C880B990B19
:102E40000E94242B6B017C0120E030E041EE54E431
:102E50000E941D2B8823A4F420E030E44CE155E4CB
:102E6000C501B4010E941D2B882354F420E030E0FA
:102E700040E050E4C501B4010E94672C4B015C01A5
:102E800020E030EF47E056E4C701B6010E941D2B59
:102E90008823C4F4C93883E1D807A4F020E030E8DF
:102EA00049E054E4C501B4010E94742D181654F48D
:102EB00020E030E040E050E4C501B4010E94662CFF
:102EC0004B015C01C501B4010E94452DCB010E945C
:102ED000F00883E10E94C708892B11F40F5F1F4F90
:102EE000043611053CF41C161D060CF489CFC4E60B
:102EF000D0E002C0C4E6D0E01C161D0644F40E94D7
:102F0000D82488E893E10E94F0082197F5CF83E167
:102F10000E94C708019709F040C00F2EF6E0EF2E7F
:102F2000F12CF02D1E141F04C4F583E10E94C70884
:102F3000019749F50E944322C6E9D0E01C161D0600
:102F400044F40E94D82480EA9FE00E94F008219770
:102F5000F5CF0E943D22C0EADFE000E010E00E94D1
:102F6000D824219788EB9BE00E94F00883E10E941F
:102F7000C708892B11F40F5F1F4F043611051CF48D
:102F80001C161D0664F364E670E080E090E00E9489
:102F9000FB0821E0E21AF108C5CF83E10E94C708CF
:102FA000019709F0AAC080E00E94042410E000E02C
:102FB00080E090E00E94311564E670E080E090E0EF
:102FC0000E94FB08111114C080918A0390918B0319
:102FD00024E030E0281B390B220F331F82E090E001
:102FE00002C0880F991F2A95E2F70E94311531C05F
:102FF000C4E0D0E080918A0390918B039E01281B4E
:10300000390B220F331F81E090E002C0880F991F17
:103010002A95E2F70E94311564E670E080E090E0C6
:103020000E94FB0880918A0390918B03C81BD90BE7
:10303000CC0FDD1F82E090E002C0880F991FCA9577
:10304000E2F70E94311564E670E080E090E00E94B3
:10305000FB0864E670E080E090E00E94FB080E94BC
:1030600005218230D9F0843019F0813061F520C01B
:1030700081E00E9404240E943D22C0E0D0E0C83CD0
:10308000D10544F40E94D8248CE795E10E94F00811
:103090002196F5CF80E00E94042415C081E00E94B3
:1030A00004240E94DD24182F80E00E9404240BC019
:1030B00081E00E9404240E94DD24182F80E00E94F9
:1030C0000424111101E0002309F472CF809116014C
:1030D0009091170124E030E0281B390B220F331F99
:1030E00081E090E002C0880F991F2A95E2F70E94C4
:1030F000311581E00E9404240FC00E943D22C2ECE1
:10310000D1E01C161D0644F40E94D82488E893E1FF
:103110000E94F0082197F5CF80E00E94042460917E
:10312000180180E00E943F1410925E030E944A0939
:10313000DF91CF911F910F91FF90EF90DF90CF9093
:10314000BF90AF909F908F900895CF92DF92EF92B3
:10315000FF920F931F93CF93DF9380918A030E9476
:103160004B2180918803882319F081E00E94042478
:103170006091180180E00E9448140E944322C0E040
:10318000D0E00E94D82421968CE795E10E94F008B7
:1031900083E10E94C708892B31F4CC3D25E0D2079A
:1031A00024F010E003C010E001C011E01111E9CFDC
:1031B00083E10E94C708892BE1F50F2EF6E0CF2EA0
:1031C000D12CF02DE12CF12C1C141D0494F583E17D
:1031D0000E94C708892B49F50E943D22C8ECD0E027
:1031E000DD2344F00E94D8248CED95E00E94F00885
:1031F0002197F6CF0E944322C0E0D0E00E94D8245D
:10320000219680EA9FE00E94F00883E10E94C708AF
:10321000019719F48FEFE81AF80A24E6E216F10490
:1032200024F4C43F81E0D8074CF321E0C21AD1084E
:10323000CBCF83E10E94C708892B09F0B1C080E0A1
:103240000E94042400E0F12C80E090E00E943115FF
:1032500060E273E080E090E00E94FB08011114C07E
:1032600080918A0390918B0324E030E0281B390B76
:10327000220F331F82E090E002C0880F991F2A9529
:10328000E2F70E94311531C0C4E0D0E080918A039A
:1032900090918B039E01281B390B220F331F81E075
:1032A00090E002C0880F991F2A95E2F70E9431151D
:1032B00064E670E080E090E00E94FB0880918A0361
:1032C00090918B03C81BD90BCC0FDD1F82E090E0DF
:1032D00002C0880F991FCA95E2F70E94311564E673
:1032E00070E080E090E00E94FB0860E273E080E024
:1032F00090E00E94FB080E9405218230D9F08430C2
:1033000019F0813071F520C081E00E9404240E94F0
:103310004322C0E0D0E0C83CD10544F40E94D82448
:103320008CE795E10E94F0082196F5CF80E00E949D
:10333000042417C081E00E9404240E94DD24082F89
:1033400080E00E9404240DC081E00E9404240E94B9
:10335000DD24082F80E00E940424002311F0FF24C4
:10336000F394FF2009F470CF81E00E940424C0E0B0
:10337000D0E00E94D82421968CE795E10E94F008C5
:1033800083E10E94C708892B31F4CC3D85E0D80742
:1033900024F0812F03C0812F01C081E08111E9CF8A
:1033A0000E94DF218C01C0E0D0E00F2EC12CF0EA9A
:1033B000DF2EFCE8EF2EF5E4FF2EF02DC017D1072D
:1033C00008F056C00E94D824CE010B9785399F4043
:1033D000A0F420E030E842E254E4C701B6010E94C4
:1033E000742D181654F420E030E040E850E4C70192
:1033F000B6010E94662C6B017C01CE0185569109B5
:103400008B339F40A0F420E030E842E254E4C7014F
:10341000B6010E94742D181654F420E030E040E804
:103420005FE3C701B6010E94662C6B017C01C134C9
:103430008FE1D807A0F020E030E84BE355E4C70166
:10344000B6010E941D2B882354F420E030E040E0B8
:1034500050E4C701B6010E94672C6B017C01C701D3
:10346000B6010E94452DCB010E94F0082196A6CFFF
:103470006091180180E00E943F1481E080935E0318
:10348000DF91CF911F910F91FF90EF90DF90CF9040
:103490000895861B970B23E631E0AC01429FC001E3
:1034A000439F900D529F900D11240895CF93DF9369
:1034B000AC01461B570B27E43DEF429FE001439FC1
:1034C000D00D529FD00D11240E94491ABE010E94B6
:1034D0004B23DF91CF910895CF93DF93EC0181E0EF
:1034E0008093830380918A0390918B03059771F4F5
:1034F00040E050E064E47DEF80E090E00E945A22DA
:1035000084E090E090938B0380938A038091810301
:10351000909182030196909382038093810380911E
:103520008A0390918B0324E030E0281B390B220F93
:10353000331F82E090E002C0880F991F2A95E2F7BE
:103540000E94311580918A0390918B03909317010B
:1035500080931601D0938B03C0938A0320915E035E
:10356000222349F08C179D0721F480918903811152
:1035700002C00E94DA1680918903811102C00E9464
:10358000B42460918A0370918B038091160190910D
:1035900017010E94561A80918A0390918B0324E0B0
:1035A00030E0281B390B220F331F82E090E002C06D
:1035B000880F991F2A95E2F70E94311580915E03CA
:1035C000811102C00E94A51880E090E00E94311590
:1035D00080918A0390918B0324E030E0281B390B03
:1035E000220F331F81E090E002C0880F991F2A95B7
:1035F000E2F70E943115DF91CF9108950F931F9349
:10360000CF93DF938C0180918903811102C00E94C6
:10361000B42480918A0390918B0324E030E0281B2E
:10362000390B220F331F82E090E002C0880F991FF0
:103630002A95E2F70E943115C0918A03D0918B033D
:1036400010938B0300938A03C017D10759F10530FB
:10365000110551F440E050E06CEB72E080E090E046
:103660000E945A2221960DC0C530D10551F440E088
:1036700050E064E47DEF80E090E00E945A22C4E0D4
:10368000D0E080918803882319F081E00E9404240F
:1036900060918A0370918B03CE010E94561A80E0DC
:1036A0000E94042480E090E00E94311580918A03FA
:1036B00090918B0324E030E0281B390B220F331F3D
:1036C00081E090E002C0880F991F2A95E2F70E94DE
:1036D0003115DF91CF911F910F910895CF93DF9313
:1036E000EC0180915E0381110E94DA1680918A03B9
:1036F00090918B030E94FE1A80918803882319F011
:1037000081E00E9404246091180180E00E94481426
:10371000C330D10514F494E001C090E080918A0395
:10372000382F391B282F2C1B47E45DEF3403B001E1
:10373000359F700D1124709387036093860343E6D1
:1037400051E02403C001259F900D1124909385031F
:10375000809384030E944B23C0E0D0E00E94D824D1
:1037600021968CED95E00E94F008C43C89E0D807D2
:10377000ACF380E00E9404246091180180E00E9474
:103780003F14DF91CF9108950F931F93CF93DF9351
:1037900000D000D0CDB7DEB7182F092F80917F035E
:1037A00090918003809704F5812F902F0E944025EF
:1037B000992304F18D30910511F480E090E08A3076
:1037C000910511F480E090E020917F033091800317
:1037D000A9014F5F5F4F5093800340937F03F9012E
:1037E000E15AFC4F808306C01092800310927F0341
:1037F0008FEF9FEF1A8219821C821B8220917F0318
:1038000030918003121613060CF030C2892B09F098
:103810002DC21092800310927F03CE0101969F93D8
:103820008F9387E492E09F938F938FE593E09F932C
:103830008F930E9499250F900F900F900F900F90EB
:103840000F9018161906DCF489819A81853091054C
:1038500008F00CC20E946C1A68EC70E080E090E006
:103860000E94FB0883E492E09F938F930F931F9332
:103870000E947E250F900F900F900F90F7C1CE0100
:1038800001969F938F938FE392E09F938F938FE5A1
:1038900093E09F938F930E9499250F900F900F9024
:1038A0000F900F900F90181619062CF589819A81A8
:1038B0008530910508F0DAC120915E03222321F0C2
:1038C00081E080935D030AC00E94FE1A0E942816C0
:1038D00068EC70E080E090E00E94FB088BE392E0EF
:1038E0009F938F930F931F930E947E250F900F90AD
:1038F0000F900F90BBC1CE0101969F938F9387E3EA
:1039000092E09F938F938FE593E09F938F930E9414
:1039100099250F900F900F900F900F900F90181601
:103920001906FCF489819A81009719F0019729F012
:103930009DC181E08093180103C082E0809318014B
:10394000809118010E94BA1483E392E09F938F93B1
:103950000F931F930E947E250F900F900F900F9052
:1039600085C1CE0101969F938F938FE292E09F9342
:103970008F938FE593E09F938F930E9499250F90EB
:103980000F900F900F900F900F9018161906BCF41F
:103990000E94DA1668EC70E080E090E00E94FB087C
:1039A0008BE292E09F938F930F931F930E947E254B
:1039B000109283030F900F900F900F9057C1CE017C
:1039C00001969F938F9387E292E09F938F938FE569
:1039D00093E09F938F930E9499250F900F900F90E3
:1039E0000F900F900F901816190684F489819A8110
:1039F000892B09F03BC198E088E10FB6F894A895AF
:103A0000809360000FBE9093600030C1CE0101969C
:103A10009F938F9383E292E09F938F938FE593E040
:103A20009F938F930E9499250F900F900F900F9066
:103A30000F900F9018161906CCF489819A81892B62
:103A400009F014C183E10E94C7089F938F938DE111
:103A500092E09F938F930F931F930E947E250F9068
:103A60000F900F900F900F900F9000C1CE01019614
:103A70009F938F9389E192E09F938F938FE593E0DB
:103A80009F938F930E9499250F900F900F900F9006
:103A90000F900F9018161906D4F589819A81009716
:103AA00069F485E192E09F938F930F931F930E9497
:103AB0007E250F900F900F900F90D8C08130910508
:103AC00091F41F9287E68F938FE092E09F938F93FC
:103AD0000F931F930E947E250F900F900F900F90D1
:103AE0000F900F90C3C0029709F0C0C01F921F92A1
:103AF00089E092E09F938F930F931F930E947E25FE
:103B00000F900F900F900F900F900F90AFC0CE01BD
:103B100003969F938F9302979F938F9382E092E0F7
:103B20009F938F938FE593E09F938F930E949925A6
:103B30000FB6F894DEBF0FBECDBF18161906BCF441
:103B400089819A81059708F091C08B819C810397A8
:103B500008F08CC08EEF91E09F938F930F931F938B
:103B60000E947E250F900F900F900F907FC0CE0186
:103B700001969F938F938AEF91E09F938F938FE5A8
:103B800093E09F938F930E9499250F900F900F9031
:103B90000F900F900F9018161906A4F489819A813E
:103BA000892B09F063C00E949B1586EF91E09F93DB
:103BB0008F930F931F930E947E250F900F900F906D
:103BC0000F9054C0CE0101969F938F9382EF91E0A6
:103BD0009F938F938FE593E09F938F930E949925F6
:103BE0000F900F900F900F900F900F9018161906CE
:103BF000A4F489819A8185309105C0F50E946E1BDD
:103C00008EEE91E09F938F930F931F930E947E25DA
:103C10000F900F900F900F9029C0CE0101969F93A7
:103C20008F938AEE91E09F938F938FE593E09F931C
:103C30008F930E9499250F900F900F900F900F90E7
:103C40000F901816190694F489819A81892B71F4C2
:103C50000E94BF1686EE91E09F938F930F931F9360
:103C60000E947E250F900F900F900F900F900F9055
:103C70000F900F90DF91CF911F910F910895809138
:103C80008A0390918B0324E030E0281B390B220F2C
:103C9000331F81E090E002C0880F991F2A95E2F758
:103CA0000E9431150E940521857041F164EF71E099
:103CB00080E090E00E94FB080E940521813019F00D
:103CC000843061F015C080918A0390918B03853018
:103CD000910574F401960E94FE1A0AC080918A032D
:103CE00090918B03181619061CF401970E94FE1A76
:103CF00064EF71E080E090E00E94FB0880918A030D
:103D000090918B030597A1F482E090E00E94311519
:103D100062E370E080E090E00E94FB0881E090E0C8
:103D20000E94311562E370E080E090E00E94FB08A1
:103D30000895CF9388E492E00E94C41B0E944A0930
:103D4000C0918303C11134C00E943F1E0E9405210F
:103D5000823039F480918A0390918B0305970CF49B
:103D6000C1E0CC2329F180918A0390918B0324E058
:103D700030E0281B390B220F331F82E090E002C095
:103D8000880F991F2A95E2F70E94311564EF71E0C0
:103D900080E090E00E94FB080E940521823041F4FF
:103DA00080918903811102C00E94B4240E942816C8
:103DB000CF9108950E9457110E943F1163E871E06E
:103DC00086E592E00E94E70E0E94E52080E090E008
:103DD0000E94F41581E090E00E94F415ECE8F3E015
:103DE0008AEE91E091838083938382838FED91E0CB
:103DF0009F938F9388E492E09F938F930E947E25F8
:103E000084B1817F84B984B1866084B982E090E016
:103E10000E94F41580E00E94BA1483E090E00E94B2
:103E2000F4150E94E50F84E090E00E94F41587E00D
:103E30000E94171580E090E00E9431150E945415F1
:103E400081E00E941D24809118010E94BA140E94F2
:103E500005210F900F900F900F90823011F40E9467
:103E6000500A83E10E94C708019719F481E080930A
:103E70005E03089583E10E94C708019709F50E9437
:103E800005218130B9F383E10E94C708019719F435
:103E90000E943509F4CF85E591E00E9431156CE26E
:103EA00071E080E090E00E94FB0880E090E00E94DA
:103EB00031156CE271E080E090E00E94FB08DFCFFA
:103EC0000895FC019081913049F028F0923049F03A
:103ED000933051F00BC081E08083089582E08083AD
:103EE000089583E0808308951082089510820895D4
:103EF000CF93DF93FC01EB0190819130C1F028F06A
:103F0000923019F0933019F512C088819981019689
:103F10009983888399231CF080329340D8F0CF0195
:103F20000E94611F8FE193E09983888313C0888189
:103F3000998101979983888399231CF0803293405B
:103F400048F0CF010E94611F1982188203C01082BD
:103F500019821882DF91CF910895845F9A418D383C
:103F6000934210F481E0089580E00895853010F4C4
:103F700081E0089580E008950E94011381E080931C
:103F8000E7018FEF9FEF9093E6018093E50108959D
:103F9000CF93DF938BE090E00E94D72BC82F8CE06B
:103FA00090E00E94D72BD82FC81759F08DE090E0F1
:103FB0000E94D72BC81729F0D81711F0CFEF01C0F6
:103FC000CD2F8C2FDF91CF910895FF920F931F93E8
:103FD000CF93DF930E94C81FF82E81E0F81631F1CD
:103FE000F81638F082E0F81621F083E0F81239C0B4
:103FF0001DC0C0E0D0E0C03283E0D807A8F50F2D87
:1040000010E0CE010E960E94D72B90E095958795F3
:10401000959587959595879595958795081719078F
:1040200019F0CE01019725C02196E5CFCFE1D3E06D
:10403000DD23ECF00F2D10E0CE010E960E94D72B61
:1040400090E0959587959595879595958795959504
:1040500087950817190719F0CE0101960AC0219714
:10406000E7CF8FEF9FEF05C08FE193E002C080E0C4
:1040700090E0DF91CF911F910F91FF9008950F93E2
:104080001F93CF938C010E94E51F99230CF180327E
:1040900023E09207F8F40E960E94D72BC82F8F705A
:1040A000F80180838530C0F40E94C81F8430B0F4CA
:1040B0002C2F30E035952795359527953595279503
:1040C0003595279590E02817390751F080E009C011
:1040D00080E007C080E005C080E003C080E001C050
:1040E00081E0CF911F910F910895CF93DF93D82F47
:1040F000C0E0C33040F48C2F90E06D2F0B960E94EF
:10410000E52BCF5FF6CF0E94C81FD81302C081E015
:1041100001C080E0DF91CF910895CF93DF93EC0150
:1041200099234CF4D195C195D1090E94ED148D7F4E
:104130000E94011505C00E94ED1482600E940115C5
:10414000CE01DF91CF9108950E94ED1484600E940A
:10415000011508950E94ED148B7F0E9401150895AA
:10416000CF93DF93EC01992334F4D195C195D10914
:104170000E94AA2002C00E94A420CE01DF91CF910C
:1041800008952091E8013091E90128173907E1F0FD
:104190002E98000020E030E82115310579F0A901C2
:1041A00048235923452B11F02D9A01C02D98479A89
:1041B00000004798000036952795EECF2E9A000014
:1041C0009093E9018093E80108953F9A269A259AF1
:1041D00047982E982D981092E9011092E80180E0FE
:1041E00090E00E94C1208091E8019091E9010E9435
:1041F000C12081E08093E7010E94BC1F68E971E063
:1042000086E592E00E94E70E0895CF93DF9300D0F9
:10421000CDB7DEB721E041E0BE016F5F7F4F81E2A5
:104220000E94B712898190E095958795959587951D
:1042300095958795959587959595879589838730E9
:1042400021F16AE070E080E090E00E94FB0821E04C
:1042500041E0BE016E5F7F4F81E20E94B7128A810A
:104260008295869587709981891309C0953059F098
:10427000963019F0933019F404C081E007C080E053
:1042800005C084E003C082E001C080E00F900F9081
:10429000DF91CF910895EF92FF920F931F93CF93E9
:1042A000DF9300D01F92CDB7DEB7E82EF12C82E06D
:1042B0008F15A0F10E94C81F8B830E94E51F9A836F
:1042C0008983BE016F5F7F4FCE0103960E94781FE6
:1042D0008B810E947520082F882309F18B811E2D68
:1042E0001F7090E1899F100D112489819A81612F9F
:1042F0000E960E94E52B89819A810E960E94D72BFB
:10430000181769F0CE0103960E94611F8B810E94ED
:104310007520082F882319F0F394C9CF00E0802F6F
:104320000F900F900F90DF91CF911F910F91FF9001
:10433000EF9008950F931F93CF938C01FC01C081E0
:104340008C2F0E94B61F882351F0F8016181728181
:104350008C2F90E0880F991F01960E94F72BCF9128
:104360001F910F9108950F931F93CF93DF938C01AB
:10437000FC01C181D2812A97CE010E94AD1F882302
:1043800019F0F801D283C183DF91CF911F910F9172
:1043900008950F931F93CF93DF938C01FC01C1818C
:1043A000D2812A96CE010E94AD1F882319F0F80110
:1043B000D283C183DF91CF911F910F910895CF9345
:1043C000DF93C0918A03D0918B038C2F0E94B61F7C
:1043D000882341F1CE019927880F991F01960E94E9
:1043E000DF2BEC01CF3F8FEFD807A1F480E090E006
:1043F0000E94D72B893C70F490E0EC01CC0FDD1FBC
:10440000880F991F880F991F880F991FC80FD91FF0
:10441000C452D14ECE010E94AD1F882331F08C2FA3
:104420009D2F05C084EC92E202C084EC92E2DF9101
:10443000CF910895CF93DF93EC0180918A03888315
:104440000E94DF219A838983DF91CF910895CF93D2
:10445000DF93C0E0D0E0CF3F83E0D80730F46FEFC8
:10446000CE010E94E52B2196F6CF6FEF8FEF93E000
:104470000E94E52BDF91CF9108950E94ED14816099
:104480000E94011508950E94ED148E7F0E9401156F
:104490000895CF93DF93EC01992334F4D195C1951E
:1044A000D1090E943D2202C00E944322CE01DF9129
:1044B000CF910895CF92DF92EF92FF920F931F93C7
:1044C000CF93DF93EB017A010E94B0208C01CE01E3
:1044D0000E948D20EC01C7010E9449227C010F2E11
:1044E000F2E3CF2ED12CF02D101611060CF45E9AAB
:1044F0001C161D060CF45C9A1E141F040CF42C9A56
:104500000000101611063CF45E980150110988EE67
:1045100093E00E94F0081C161D0634F45C98219765
:1045200080E293E00E94F0081E141F0444F42C98CB
:1045300081E0E81AF1088CEB92E00E94F00800009C
:104540001C141D048CF49601220F331FC601880F22
:10455000991F880F991F880F991F820F931F0E9420
:10456000F00881E0C81AD108209709F0BDCF0115E5
:10457000110509F0B9CFE114F10409F0B5CFDF91CD
:10458000CF911F910F91FF90EF90DF90CF90089502
:10459000CF92DF92EF92FF920F931F93CF93DF930F
:1045A0000E943A1F40E050E06CE97FEF80E090E02D
:1045B0000E945A220F2EF5E0CF2ED12CF02D6894B8
:1045C000EE24E1F8F12C00E010E01C141D040CF0C6
:1045D00050C02CEEA6012403B001259F700D1124BC
:1045E00040E050E080E090E00E945A2262E370E0F8
:1045F00080E090E00E94FB08C0E0D0E0C03A5FE0BD
:10460000D5079CF540E050E061E070E080E090E08C
:104610000E945A2281E00E941D13C131D10514F07D
:10462000069718F10F5F1F4FC83B8BE0D80719F4AE
:104630004FEFE41AF40A0536110564F081E090E0CA
:104640009701220F331F02C0880F991F2A95E2F7A6
:104650000E943115093C110534F080E090E00E9481
:10466000311500E010E02196C9CF51E0C51AD108FC
:10467000ACCF40E050E06CE871EF80E090E00E9449
:104680005A2281E0DF91CF911F910F91FF90EF901F
:10469000DF90CF9008954F925F926F927F928F92AA
:1046A0009F92AF92BF92CF92DF92EF92FF920F93C1
:1046B0001F93CF93DF93EB010E94B0207C01CE01CA
:1046C0000E948D20EC01892BC9F0B7010F2C000C42
:1046D000880B990B0E94242B4B015C01BE010D2E0F
:1046E000000C880B990B0E94242B9B01AC01C50187
:1046F000B4010E94D32C2B013C0108C00F2E412C89
:10470000512CF0E86F2EFFE37F2EF02D6E018AEF23
:10471000C81AD10804EC19E0812C912C540120977F
:1047200021F4E114F10409F45EC020E030E040E837
:104730005FE3C501B4010E94742D882324F01E1488
:104740001F040CF45E9A1C161D060CF45C9A000003
:1047500020E030E040E85FE3C501B4010E94742D21
:1047600088233CF01E141F0424F45E9881E0E81AAC
:10477000F1081C161D0614F45C982197000020E037
:1047800030E040E85FE3C501B4010E94742D882346
:1047900054F020E030E040E85FE3C501B4010E943E
:1047A000662C4B015C01A3019201C501B4010E947A
:1047B000672C4B015C01C8010E94F008053883E0BA
:1047C00018072CF0CC16DD0614F40A501109043C2D
:1047D00089E018070CF0A3CFCA3FD1050CF09FCF9A
:1047E000065F1F4F9CCFDF91CF911F910F91FF90DC
:1047F000EF90DF90CF90BF90AF909F908F907F9081
:104800006F905F904F900895882359F040E050E0FA
:1048100060E070E089ED90E00E945A2210928803D7
:10482000089540E050E060E070E087E29FEF0E9472
:104830005A2281E08093880308959F92AF92BF929D
:10484000CF92DF92EF92FF920F931F93CF93DF935C
:104850001F92CDB7DEB7982E1982882339F0CE018A
:1048600001960E943F20882309F471C040E050E087
:1048700060E070E086EF9FEF0E945A22AA24A39482
:10488000B12CC12CD12C00E010E01A141B040CF048
:1048900046C062E370E080E090E00E94FB08E12CFB
:1048A000F12C80EDE81687E0F806ACF540E050E02A
:1048B00060E070E081E090E00E945A2284E690E09F
:1048C0000E94F00880E00E941D130F5F1F4F88EECA
:1048D000E81683E0F80619F48FEFC81AD80A0536EF
:1048E000110564F081E090E09601220F331F02C0B1
:1048F000880F991F2A95E2F70E943115093C11058E
:1049000034F080E090E00E94311500E010E08FEF7D
:10491000E81AF80AC6CF81E0A81AB108B6CF40E07D
:1049200050E060E070E08EE79FEF0E945A229920ED
:1049300051F0698170E080E090E00E94491A60E0E7
:1049400070E00E944B2380E00E94042481E00F90DD
:10495000DF91CF911F910F91FF90EF90DF90CF905B
:10496000BF90AF909F90089580E00E941D240E9408
:10497000C82285E591E00E94311580E090E00E9418
:10498000311580918A0390918B0324E030E0281B3D
:10499000390B220F331F81E090E002C0880F991F6E
:1049A0002A95E2F70E94311581E0809389030895EA
:1049B0002C9A00002C98000008950F931F93CF931A
:1049C000DF930E943D2283E10E94C7080197C1F452
:1049D00000E010E0C8EBDBE00E94D82488EB9BE00D
:1049E0000E94F00883E10E94C708892B11F40F5F31
:1049F0001F4F21971C161D061CF40233110564F38A
:104A000083E10E94C708892B59F50E94432200E0E8
:104A100010E0C8EBDBE00E94D82488EB9BE00E940A
:104A2000F00883E10E94C708019711F40F5F1F4F40
:104A300021971C161D061CF40233110564F3CD2BBF
:104A400089F00E943D22C8E5D2E01C161D0664F4E0
:104A50000E94D82488EB9BE00E94F0082197F5CFB4
:104A600080E003C080E001C081E0DF91CF911F9121
:104A70000F9108950E94060F0E940D0F0C94D80FFD
:104A8000CF93DF93EC012B8120FF33C026FF0AC0B8
:104A90002F7B2B838E819F8101969F838E838A81BA
:104AA00090E029C022FF0FC0E881F9818081082EA3
:104AB000000C990B009719F420622B831AC03196D1
:104AC000F983E8830EC0EA85FB85099597FF09C045
:104AD0002B81019611F080E201C080E1822B8B8353
:104AE00008C02E813F812F5F3F4F3F832E83992740
:104AF00002C08FEF9FEFDF91CF910895A0E0B0E06B
:104B0000E4E8F5E20C941B2C0F811885F8018381F1
:104B100088608383AE01455F5F4F69857A85C801F0
:104B20000E94B225F8012381277F2383E4E00C94BF
:104B3000372CAEE0B0E0EFE9F5E20C941D2C8DE0EF
:104B40008C838B899C899A838983AE01495E5F4FF0
:104B50006D897E89CE0101960E942F292E96E2E072
:104B60000C94392CABE0B0E0E8EBF5E20C940D2CA2
:104B70006C017B018A01FC0117821682838181FF0F
:104B8000CCC1CE0101963C01F6019381F70193FD62
:104B9000859193FF81917F01882309F4BAC1853201
:104BA00039F493FD859193FF81917F01853229F43A
:104BB000B60190E00E946A2AE7CF912C212C312C7B
:104BC000FFE1F315D8F08B3279F038F4803279F0C8
:104BD0008332A1F4232D20611DC08D3261F080331A
:104BE00069F4232D216016C0832D8260382EE32DB9
:104BF000E4603E2E2AC0F32DF8601DC037FC2DC0A6
:104C000020ED280F2A3040F08E32B9F436FC81C1F5
:104C1000232D2064322E19C036FE06C08AE0989EED
:104C2000200D1124922E11C0EAE02E9E200D112499
:104C3000222EF32DF0623F2E08C08C3621F4832DF6
:104C40008068382E02C0883641F4F70193FD8591C3
:104C500093FF81917F018111B3CF982F9F7D955450
:104C6000933028F40C5F1F4F9FE399830DC0833668
:104C700031F0833771F0833509F059C021C0F80154
:104C8000808189830E5F1F4F88248394912C530168
:104C900013C02801F2E04F0E511CF801A080B18032
:104CA00036FE03C0692D70E002C06FEF7FEFC501D3
:104CB0000E945F2A4C018201F32DFF773F2E16C020
:104CC000280122E0420E511CF801A080B18036FE7E
:104CD00003C0692D70E002C06FEF7FEFC5010E9435
:104CE000542A4C01F32DF0683F2E820133FC1BC087
:104CF000822D90E088169906B0F4B60180E290E02B
:104D00000E946A2A2A94F4CFF50137FC859137FE78
:104D100081915F01B60190E00E946A2A21102A94D5
:104D200021E0821A91088114910471F7E8C0843659
:104D300011F0893641F5F80137FE07C060817181B5
:104D4000828193810C5F1F4F08C060817181072EA3
:104D5000000C880B990B0E5F1F4FF32DFF763F2E33
:104D600097FF09C090958095709561957F4F8F4F03
:104D70009F4FF0683F2E2AE030E0A3010E94BF2A37
:104D8000882E861845C0853731F4232D2F7EB22E0C
:104D90002AE030E025C0932D997FB92E8F36C1F0DF
:104DA00018F4883579F0B5C0803719F0883721F0CC
:104DB000B0C0E92FE061BE2EB4FE0DC0FB2DF46043
:104DC000BF2E09C034FE0AC0292F2660B22E06C0AD
:104DD00028E030E005C020E130E002C020E132E010
:104DE000F801B7FE07C060817181828193810C5FF9
:104DF0001F4F06C06081718180E090E00E5F1F4F01
:104E0000A3010E94BF2A882E8618FB2DFF773F2E14
:104E100036FE0DC0232D2E7FA22E891458F434FEA9
:104E20000BC032FC09C0832D8E7EA82E05C0B82C85
:104E3000A32C03C0B82C01C0B92CA4FE0FC0FE01E6
:104E4000E80DF11D8081803321F49A2D997EA92EE1
:104E500009C0A2FE06C0B394B39404C08A2D86781C
:104E600009F0B394A3FC11C0A0FE06C0B21488F4EC
:104E7000280C922C9B180EC0B21460F4B60180E28C
:104E800090E00E946A2AB394F7CFB21418F42B185A
:104E900002C0982C212CA4FE10C0B60180E390E043
:104EA0000E946A2AA2FE17C0A1FC03C088E790E016
:104EB00002C088E590E0B6010CC08A2D867859F0D2
:104EC000A1FE02C08BE201C080E2A7FC8DE2B60128
:104ED00090E00E946A2A891438F4B60180E390E0D9
:104EE0000E946A2A9A94F7CF8A94F301E80DF11D83
:104EF0008081B60190E00E946A2A8110F5CF2220BD
:104F000009F442CEB60180E290E00E946A2A2A9417
:104F1000F6CFF6018681978102C08FEF9FEF2B9627
:104F2000E2E10C94292C20FD09C0FC0123FD05C001
:104F300022FF02C07383628351834083089544FD3E
:104F400017C046FD17C0AB01BC01DA01FB01AA0F77
:104F5000BB1FEE1FFF1F1094D1F74A0F5B1F6E1F80
:104F60007F1FCB01BA01660F771F881F991F09C0E9
:104F700033E001C034E0660F771F881F991F31505E
:104F8000D1F7620F711D811D911D08950F931F931D
:104F9000CF93DF938C01C8010E944025EC0197FD5F
:104FA00008C00E94402A892BB1F7B801CE010E94A7
:104FB000A62ACE01DF91CF911F910F9108958F9274
:104FC0009F92AF92BF92EF92FF920F931F93CF9356
:104FD000DF938C01D62F7A01B22E0E9440259C01CE
:104FE00033272B32310531F02D32310561F48B2D11
:104FF0008068B82ED15011F480E068C0C8010E94CA
:10500000402597FDF9CFCB2DCD7F2B2D207309F5B2
:105010008033F9F4AA24AA94AD0E09F443C0C80160
:105020000E94402597FD3EC09C012F7D33272835E7
:10503000310549F4C264D250A9F1C8010E9440254B
:1050400097FF07C02FC0B6FE02C0C26001C0C26198
:10505000DA2D812C912C540120ED280F283080F07E
:10506000C4FF04C0B8010E94A62A19C02A3040F02B
:10507000C6FFF8CF2F7D3FEE320F363098F727501E
:105080004C2FC501B4010E949F274B015C01C260F7
:10509000D15059F0C8010E94402597FFDDCFC1FDD6
:1050A00004C0AACF812C912C5401C7FF08C0B09432
:1050B000A09490948094811C911CA11CB11C2C2F55
:1050C000B501A401C7010E94932781E0DF91CF9130
:1050D0001F910F91FF90EF90BF90AF909F908F9096
:1050E0000895A0E2B0E0E7E7F8E20C94102C5C0130
:1050F000962E7A01F9018E010F5F1F4F680180E241
:10510000D8011D928A95E9F7D50113968C9080E01D
:1051100090E0612C712C30E061E070E083FC25911F
:1051200083FE21918F01522E211103C080E090E077
:1051300092C02E3511F4009751F1432F50E04817DB
:1051400059073CF42D3559F12D3219F4772009F126
:1051500003C0772009F46AC0452D469546954695CB
:10516000D601A40FB11D452D47708B0102C0000F61
:10517000111F4A95E2F7A8015C91452B4C936514E9
:1051800059F0561410F45394E7CF5A94E5CF31E018
:1051900004C07724739401C0712C0196BFCF77208F
:1051A00019F08E8180628E83311103C0882483942C
:1051B00017C0F6019E012F5D3F4F8081809581933E
:1051C0002E173F07D1F7F2CFE114F10429F0D701F0
:1051D0008C93F70131967F019A94812C9920F9F0F4
:1051E000C5010E94402597FD18C0FC01FF2723E060
:1051F000F595E7952A95E1F7EC0DFD1D208130E04E
:10520000AC014770552702C0359527954A95E2F7BE
:1052100020FDDACFB5010E94A62A811087CFE114C4
:10522000F10411F0D7011C92C80115C0422F469518
:1052300046954695D601A40FB11D422F47708B01AC
:1052400002C0000F111F4A95E2F7A8015C91452B9F
:105250004C93622EA2CFA096EFE00C942C2CA0E0F1
:10526000B0E0E5E3F9E20C94102C6C01EB015A017B
:10527000FC0117821682512CF601E380FE01E3FC4B
:105280008591E3FE8191182FEF01882309F4EEC088
:1052900090E00E94402A892B21F0C6010E94C62777
:1052A000EBCF153241F4FE01E3FC1591E3FE1191C1
:1052B000EF01153281F4C6010E94402597FDD4C04C
:1052C000412F50E09C01332724173507A9F2B6017E
:1052D0000E94A62ACBC01A3239F4E3FC1591E3FEF2
:1052E0001191EF0101E001C000E0F12C20ED210F50
:1052F0002A3080F402606F2D70E080E090E040E2A0
:105300000E949F27F62EFE01E3FC1591E3FE11910A
:10531000EF01ECCF01FF03C0F11003C0A7C0FF24D1
:10532000FA94183619F01C3651F010C0FE01E3FC57
:105330001591E3FE1191EF01183641F40860046005
:10534000FE01E3FC1591E3FE1191EF01112309F435
:105350008DC0612F70E08AEC90E00E94492A892B71
:1053600009F484C000FD07C0F50180809180C5016B
:1053700002965C0102C0812C912C1E3651F4F6017C
:105380004681578160E070E0202FC4010E9493277E
:1053900073CF1336A9F401FD02C0FF24F394C601B4
:1053A0000E94402597FD60C08114910429F0F4010A
:1053B0008083C40101964C01FA94F110F0CF50C0E3
:1053C0001B3559F49E01A4016F2DC6010E9471285E
:1053D000EC01892B09F044C03EC0C6010E94C627DB
:1053E00097FD42C01F3661F128F4143639F11936A1
:1053F00051F128C0133771F0153701F123C0811422
:10540000910429F0F4016082C40101964C01FA94E0
:10541000FF2071F0C6010E9440253C0197FD08C0A5
:105420000E94402A892B59F3B601C3010E94A62A83
:1054300081149104A9F0F401108212C0006203C02B
:10544000006101C00064202FA4016F2DC6010E94DD
:10545000DF27811105C0F6018381807329F406C01E
:1054600000FD0ACF539408CF552019F0852D90E008
:1054700002C08FEF9FEFCDB7DEB7EFE00C942C2C7E
:1054800091110C94832B803219F089508550C8F704
:105490000895FC010590061621F00020D9F7C001FF
:1054A00008953197CF010895FC0105906150704037
:1054B0000110D8F7809590958E0F9F1F0895FC01DD
:1054C0006150704001900110D8F7809590958E0F33
:1054D0009F1F08950F931F93CF93DF93FB012381A9
:1054E00021FD03C08FEF9FEF2CC022FF16C0468125
:1054F0005781248135814217530744F4A081B1813B
:105500009D012F5F3F4F318320838C93268137810C
:105510002F5F3F4F3783268314C08B01EC01FB01C3
:105520000084F185E02D0995892BE1F6D8011696C6
:105530008D919C911797019617969C938E93169731
:10554000CE01DF91CF911F910F910895FB0123812F
:1055500020FF12C026FD10C08F3F3FEF930761F080
:1055600082832F7D20642383268137812150310956
:1055700037832683992708958FEF9FEF0895FA01C7
:10558000AA27283051F1203181F1E8946F936E7F82
:105590006E5F7F4F8F4F9F4FAF4FB1E03ED0B4E073
:1055A0003CD0670F781F891F9A1FA11D680F791FB4
:1055B0008A1F911DA11D6A0F711D811D911DA11DC5
:1055C00020D009F468943F912AE0269F11243019D5
:1055D000305D3193DEF6CF010895462F4770405D70
:1055E0004193B3E00FD0C9F7F6CF462F4F70405D1F
:1055F0004A3318F0495D31FD4052419302D0A9F77A
:10560000EACFB4E0A6959795879577956795BA9573
:10561000C9F700976105710508959B01AC010A2E39
:1056200006945795479537952795BA95C9F7620F10
:10563000731F841F951FA01D08950E945F2B08F4FF
:1056400081E00895E89409C097FB3EF49095809519
:10565000709561957F4F8F4F9F4F9923A9F0F92F38
:1056600096E9BB279395F695879577956795B795B6
:10567000F111F8CFFAF4BB0F11F460FF1BC06F5F9C
:105680007F4F8F4F9F4F16C0882311F096E911C0AE
:10569000772321F09EE8872F762F05C0662371F0CF
:1056A00096E8862F70E060E02AF09A95660F771FE3
:1056B000881FDAF7880F9695879597F90895990FBF
:1056C0000008550FAA0BE0E8FEEF16161706E807CC
:1056D000F907C0F012161306E407F50798F0621BED
:1056E000730B840B950B39F40A2661F0232B242BC2
:1056F000252B21F408950A2609F4A140A6958FEFE1
:10570000811D811D089599278827089597F99F671E
:1057100080E870E060E008959FEF80EC0895002439
:105720000A941616170618060906089500240A9406
:1057300012161306140605060895092E0394000C8C
:1057400011F4882352F0BB0F40F4BF2B11F460FF1B
:1057500004C06F5F7F4F8F4F9F4F089557FD905844
:10576000440F551F59F05F3F71F04795880F97FB25
:10577000991F61F09F3F79F08795089512161306DF
:105780001406551FF2CF4695F1DF08C0161617060E
:105790001806991FF1CF8695710561050894089543
:1057A000E894BB2766277727CB0197F90895F999E5
:1057B000FECF92BD81BDF89A992780B50895A8E1E2
:1057C000B0E042E050E00C94FF2B262FF999FECF79
:1057D00092BD81BDF89A019700B4021639F01FBA44
:1057E00020BD0FB6F894FA9AF99A0FBE0895019663
:1057F000272F0E94E62B0C94E52BDC01CB01FC014A
:10580000F999FECF06C0F2BDE1BDF89A319600B419
:105810000D9241505040B8F708952F923F924F9209
:105820005F926F927F928F929F92AF92BF92CF9230
:10583000DF92EF92FF920F931F93CF93DF93CDB739
:10584000DEB7CA1BDB0B0FB6F894DEBF0FBECDBFB1
:1058500009942A88398848885F846E847D848C8482
:105860009B84AA84B984C884DF80EE80FD800C818B
:105870001B81AA81B981CE0FD11D0FB6F894DEBF6E
:105880000FBECDBFED010895A1E21A2EAA1BBB1BCE
:10589000FD010DC0AA1FBB1FEE1FFF1FA217B307FC
:1058A000E407F50720F0A21BB30BE40BF50B661F12
:1058B000771F881F991F1A9469F7609570958095D6
:1058C00090959B01AC01BD01CF0108955058BB27B5
:1058D000AA270E947E2C0C949D2B0E948F2B38F0BF
:1058E0000E94962B20F039F49F3F19F426F40C9473
:1058F0008C2B0EF4E095E7FB0C94862BE92F0E948D
:10590000AE2B58F3BA17620773078407950720F088
:1059100079F4A6F50C94D02B0EF4E0950B2EBA2F4B
:10592000A02D0B01B90190010C01CA01A0011124A5
:10593000FF27591B99F0593F50F4503E68F11A1651
:10594000F040A22F232F342F4427585FF3CF4695E2
:1059500037952795A795F0405395C9F77EF41F1604
:10596000BA0B620B730B840BBAF09150A1F0FF0FCE
:10597000BB1F661F771F881FC2F70EC0BA0F621FBA
:10598000731F841F48F4879577956795B795F795AA
:105990009E3F08F0B0CF9395880F08F09927EE0F3F
:1059A0009795879508950E94E72C0C949D2B0E9453
:1059B000962B58F00E948F2B40F029F45F3F29F07E
:1059C0000C94862B51110C94D12B0C948C2B0E948F
:1059D000AE2B68F39923B1F3552391F3951B550B27
:1059E000BB27AA2762177307840738F09F5F5F4FB2
:1059F000220F331F441FAA1FA9F335D00E2E3AF0F1
:105A0000E0E832D091505040E695001CCAF72BD008
:105A1000FE2F29D0660F771F881FBB1F2617370759
:105A20004807AB07B0E809F0BB0B802DBF01FF278B
:105A300093585F4F3AF09E3F510578F00C94862BB7
:105A40000C94D12B5F3FE4F3983ED4F38695779581
:105A50006795B795F7959F5FC9F7880F911D969544
:105A6000879597F90895E1E0660F771F881FBB1FA0
:105A7000621773078407BA0720F0621B730B840B4D
:105A8000BA0BEE1F88F7E09508950E94B62B88F0B8
:105A90009F5798F0B92F9927B751B0F0E1F0660FF2
:105AA000771F881F991F1AF0BA95C9F714C0B13033
:105AB00091F00E94D02BB1E008950C94D02B672F69
:105AC000782F8827B85F39F0B93FCCF38695779562
:105AD0006795B395D9F73EF490958095709561954B
